:100000000C94E0000C9408010C9408010C94080175
:100010000C9408010C9408010C9408010C9408013C
:100020000C9408010C9408010C9408010C9408012C
:100030000C9408010C9408010C9408010C9408011C
:100040000C9494030C9408010C9408010C9408017E
:100050000C9408010C9408010C9408010C940801FC
:100060000C9408010C94080100407A10F35A00A087
:10007000724E18090010A5D4E80000E87648170071
:1000800000E40B54020000CA9A3B000000E1F505B1
:10009000000080969800000040420F000000A086FB
:1000A00001000000102700000000E803000000002D
:1000B0006400000000000A000000000001000000D1
:1000C00000002C76D888DC674F0823DFC1DFAE59EB
:1000D000E1B1B796E5E3E453C63AE651997696E87E
:1000E000E6C28426EB898C9B62ED407C6FFCEFBC02
:1000F0009C9F40F2BAA56FA5F490055A2AF75C932D
:100100006B6CF9676DC11BFCE0E40D47FEF520E662
:10011000B500D0ED902E0300943577050080841E45
:10012000080000204E0A000000C80C333333330FA0
:10013000986E12831141EF8D2114893BE65516CF3D
:10014000FEE6DB18D1844B381BF77C1D901DA4BB49
:10015000E424203284725E228100C9F124ECA1E5FE
:100160003D2700000000240027002A0000000000B6
:10017000250028002B000000000023002600290095
:10018000040404040404040402020202020203033D
:100190000303030301020408102040800102040845
:1001A00010200102040810200000000800020100D5
:1001B000000304070000000000000000040813080A
:1001C00011241FBECFEFD8E0DEBFCDBF21E0A2E3F8
:1001D000B1E001C01D92A235B207E1F711E0A0E045
:1001E000B1E0E0ECFDE102C005900D92A233B10751
:1001F000D9F710E0CFEDD0E004C02197FE010E94B6
:10020000DB0CCE3DD107C9F70E94DE030C94D30E60
:100210000C940000833081F028F4813099F0823012
:10022000A9F008958730A9F08830C9F08430B1F47E
:10023000809180008F7D03C0809180008F778093B4
:100240008000089584B58F7784BD089584B58F7D2F
:10025000FBCF8091B0008F778093B000089580919C
:10026000B0008F7DF9CF1F93CF93DF93282F30E01D
:10027000F901E855FE4F8491F901EC56FE4FD491F7
:10028000F901E058FE4FC491CC23A9F0162F81113B
:100290000E940A01EC2FF0E0EE0FFF1FE459FE4F21
:1002A000A591B4918FB7F894EC91111108C0D09535
:1002B000DE23DC938FBFDF91CF911F910895DE2B5A
:1002C000F8CFCF93DF9390E0FC01EC56FE4F2491E2
:1002D00080589E4FFC0184918823D1F090E0880FD4
:1002E000991FFC01EE59FE4FA591B491FC01E45910
:1002F000FE4FC591D49161110EC09FB7F8948C91B7
:10030000E22FE0958E238C932881E223E8839FBF20
:10031000DF91CF9108958FB7F894EC91E22BEC9395
:100320008FBFF6CF3FB7F894809138019091390193
:10033000A0913A01B0913B0126B5A89B05C02F3F83
:1003400019F00196A11DB11D3FBFBA2FA92F982FFB
:100350008827BC01CD01620F711D811D911D42E0F6
:10036000660F771F881F991F4A95D1F708958F92BE
:100370009F92AF92BF92CF92DF92EF92FF924B018A
:100380005C010E9492016B017C010E9492016C1938
:100390007D098E099F09683E734081059105A8F388
:1003A00021E0821A9108A108B10888EEC80E83E006
:1003B000D81EE11CF11C81149104A104B10429F799
:1003C000FF90EF90DF90CF90BF90AF909F908F9075
:1003D0000895EF92FF921F93CF93DF937C01162F26
:1003E00060E082E10E94330160E083E10E9433011A
:1003F000D0E0C0E0B7018C2F0C2E02C07595679538
:100400000A94E2F761700E9433012196C830D10549
:1004100089F760E081E10E9433016AE070E080E0EA
:1004200090E00E94B70161E081E10E94330161E048
:1004300082E10E94330160E083E10E943301612F79
:1004400086E00E94330161E087E00E94330160E0B2
:1004500081E10E9433016AE070E080E090E00E9458
:10046000B70161E081E10E943301612F86E00E94C3
:10047000330160E087E00E94330160E081E10E9487
:1004800033016AE070E080E090E00E94B70161E033
:1004900081E1DF91CF911F91FF90EF900C94330198
:1004A0000F931F93CF93DF938C01D0E0C0E0D8016E
:1004B00014968D919C9115979C012E5F3F4FC2170A
:1004C000D307F0F4C817D90720F4ED91FC913097C9
:1004D000A1F410923201E2E3F1E0808161E070E08A
:1004E000082E000C990B0E94E90161E070E080E0A9
:1004F00090E00E94B7012196DACFEC0FFD1FEDCFFF
:100500006AE070E080E090E0DF91CF911F910F9161
:100510000C94B701FC0180819181009711F00C943B
:100520007D0D08950F931F93CF93DF93EC01888186
:100530009981009759F02A813B812617370730F0BF
:1005400081E0DF91CF911F910F9108958B016F5F33
:100550007F4F0E94060E009759F0998388831B8372
:100560000A832C813D81232B59F7FC011082E8CFAF
:1005700080E0E7CFEF92FF920F931F93CF93DF932B
:10058000CDB7DEB728970FB6F894DEBF0FBECDBF4C
:100590004AE09E012F5F3F4F7901B9010E94350863
:1005A000F70101900020E9F73197EE19FF09F1F00A
:1005B00000914C0110914D010E0F1F1FB80188E4EE
:1005C00091E00E949202882391F02091480130919D
:1005D000490180914C0190914D01B701820F931F09
:1005E0000E94CC0E10934D0100934C0181E028969F
:1005F0000FB6F894DEBF0FBECDBFDF91CF911F9134
:100600000F91FF90EF900895EF92FF920F931F9339
:10061000CF93DF93EC017B018A01BA010E94920221
:1006200028813981811114C02115310519F0C901C2
:100630000E947D0D198218821D821C821B821A82E3
:10064000CE01DF91CF911F910F91FF90EF90089510
:100650001D830C83B701C9010E94CC0EF1CFFB01B1
:1006600001900020E9F73197AF01461B570B0C941E
:100670000403EF92FF920F931F93CF93DF93CDB7B5
:10068000DEB7A1970FB6F894DEBF0FBECDBF7C01D9
:10069000CB01BA01F70111821082138212821582F6
:1006A00014828E010F5F1F4F22E044E00E94170862
:1006B000009789F0BC01C7010E942F03A1960FB6D5
:1006C000F894DEBF0FBECDBFDF91CF911F910F9188
:1006D000FF90EF900895F70180819181009711F0CC
:1006E0000E947D0DF70111821082158214821382FF
:1006F0001282E4CFFB01DC0111961C921E9213962C
:100700001C921E92129715961C921E921497861791
:10071000970749F0608171816115710521F044816D
:1007200055810C94040308951F920F920FB60F92F7
:1007300011242F933F938F939F93AF93BF938091F7
:10074000340190913501A0913601B091370130917B
:10075000330123E0230F2D3758F50196A11DB11D5C
:10076000209333018093340190933501A093360197
:10077000B09337018091380190913901A0913A01ED
:10078000B0913B010196A11DB11D8093380190935A
:100790003901A0933A01B0933B01BF91AF919F9172
:1007A0008F913F912F910F900FBE0F901F90189532
:1007B00026E8230F0296A11DB11DD2CFCF93DF9360
:1007C000CDB7DEB72C970FB6F894DEBF0FBECDBF06
:1007D000789484B5826084BD84B5816084BD85B51C
:1007E000826085BD85B5816085BD80916E00816028
:1007F00080936E00109281008091810082608093CE
:1008000081008091810081608093810080918000CF
:100810008160809380008091B10084608093B100FA
:100820008091B00081608093B00080917A008460F4
:1008300080937A0080917A00826080937A00809120
:100840007A00816080937A0080917A00806880933A
:100850007A001092C10061E080E00E94610161E0D5
:1008600081E00E94610161E082E00E94610161E03B
:1008700083E00E94610161E084E00E94610161E027
:1008800085E00E94610161E086E00E94610161E013
:1008900087E00E94610161E082E10E94610161E004
:1008A00083E10E94610161E080E10E94610161E0F9
:1008B00081E10E94610161E080E10E94330161E019
:1008C00081E10E94330161E082E10E94330161E035
:1008D00083E10E94330161E087E00E94330160E020
:1008E00086E00E94330160E085E00E94330160E011
:1008F00084E00E94330161E083E00E94330160E004
:1009000082E00E94330160E081E00E94330160E0F8
:1009100080E00E94330160E081E10E9433016AE0DF
:1009200070E080E090E00E94B70161E081E10E9408
:10093000330170E060E088E390E00E94E9016EE13D
:1009400070E080E090E00E94B70170E060E08EE02F
:1009500090E00E94E9016EE170E080E090E00E948A
:10096000B70170E060E081E090E00E94E9016EE193
:1009700070E080E090E00E94B70170E060E086E007
:1009800090E00E94E9016EE170E080E090E00E945A
:10099000B70128E2822E21E0922E38E0A32E31E02A
:1009A000B32E712C60E082E10E94330161E083E1AB
:1009B0000E94330161E0F40181914F010E943301F3
:1009C00060E081E10E94330161E070E080E090E04E
:1009D0000E94B70161E081E10E94330160E0872D50
:1009E0000E94330160E081E10E94330161E070E028
:1009F00080E090E00E94B70161E081E10E94330154
:100A0000F12CE12C60E084E00E94610160E085E06F
:100A10000E94610160E086E00E94610160E087E081
:100A20000E94610160E080E10E943301F701E4551A
:100A3000FE4F8491F701E856FE4F1491F701EC57F1
:100A4000FE4F0491002309F4A6C081110E940A01FF
:100A5000E02FF0E0EE0FFF1FEA58FE4FA591B49192
:100A6000EC911E2391E080E009F490E0092F182F0B
:100A700010934701009346016AE070E080E090E047
:100A80000E94B70161E080E10E94330161E084E0EF
:100A90000E94610161E085E00E94610161E086E001
:100AA0000E94610161E087E00E946101012B09F071
:100AB00007C2F701EE0FFF1FEA0DFB1D20803180FA
:100AC00091012A52310981E02230310508F080E09D
:100AD00091E091012D5231092330310508F090E069
:100AE000892B29F4FDE32F16310409F027C261E0B8
:100AF00070E080E090E00E94B7018EE22816310499
:100B000009F04CC070E060E081E090E00E94E901F3
:100B100070E060E086E090E00E94E901E0E3F0E050
:100B2000F0930101E0930001109242011092430101
:100B3000109244011092450110923E0110923F0123
:100B4000109240011092410161E371E088E491E06C
:100B50000E942F0361E0872D0E94330160E081E154
:100B60000E94330161E070E080E090E00E94B701F4
:100B700061E081E10E943301739498E0A90EB11CF9
:100B8000E4E07E120FCF80E090E0892B09F401CFE2
:100B90000E940000FECE10E000E06ACFFDE32F16B9
:100BA000310409F06AC161E070E08DE390E00E94D9
:100BB000E90180910001909101018B32910509F0CA
:100BC0005AC080913D01882399F080914201909113
:100BD0004301A0914401B0914501B0588093420176
:100BE00090934301A0934401B093450110923D01BD
:100BF00080913C01882399F080913E0190913F01C2
:100C0000A0914001B0914101B05880933E01909372
:100C10003F01A0934001B093410110923C0120910B
:100C20003E0130913F01409140015091410160915E
:100C300042017091430180914401909145010E94CD
:100C4000FD0BAB01BC01CE0107960E943903BE012A
:100C5000695F7F4FCE0101960E947A03CE01019613
:100C60000E945002CE0101960E948A02CE01079690
:100C70000E948A02BDC08D32910509F041C0809169
:100C80003D01882399F08091420190914301A09108
:100C90004401B0914501B0588093420190934301C3
:100CA000A0934401B093450110923D0180913C0115
:100CB000882399F080913E0190913F01A0914001DD
:100CC000B0914101B05880933E0190933F01A093B1
:100CD0004001B093410110923C0120913E013091BE
:100CE0003F0140914001509141016091420170915A
:100CF000430180914401909145010E94FC0BA1CFDA
:100D00008A32910509F041C080913D01882399F014
:100D10008091420190914301A0914401B09145011D
:100D2000B0588093420190934301A0934401B09343
:100D3000450110923D0180913C01882399F08091FA
:100D40003E0190913F01A0914001B0914101B05806
:100D500080933E0190933F01A0934001B0934101E5
:100D600010923C0120913E0130913F0140914001A1
:100D70005091410160914201709143018091440181
:100D8000909145010E94070B5CCF8F9789F5C09029
:100D90003E01D0903F01E0904001F090410120E001
:100DA00030E0A901C701B6010E94A10A811127C044
:100DB0001A8219821C821B821E821D8245E050E02D
:100DC0006CE271E0CE0101960E940403CE0101960F
:100DD0000E945002CE0101960E948A0261E070E0FA
:100DE00080E090E00E94B70110923D0110923C011A
:100DF00080E390E0909301018093000195CE809173
:100E00003D01882399F08091420190914301A09186
:100E10004401B0914501B058809342019093430141
:100E2000A0934401B093450110923D0180913C0193
:100E3000882381F01601270157FA509457F85094EF
:100E400020923E0130923F01409240015092410178
:100E500010923C0120913E0130913F0140914001B0
:100E60005091410160914201709143018091440190
:100E7000909145010E94690CE4CE9DE2291631044F
:100E800009F046C020E030E0A90160914201709174
:100E9000430180914401909145010E94A10A811172
:100EA00018C061E070E08DE290E00E94E901E0E3AB
:100EB000F0E0F0930101E093000181E080933D01B7
:100EC000FFEFEF1AFF0A84E0E816F10409F09ACD6B
:100ED00041CE20E030E0A90160913E0170913F01D8
:100EE00080914001909141010E94A10A811110C09E
:100EF0008091000190910101C09751F061E070E094
:100F00008DE290E00E94E90181E080933C01D8CF1E
:100F10008091000190910101C09791F630920101FA
:100F200020920001C1010E94BA0261E070E080914C
:100F30000001909101010E94E901C2CFC1010E940C
:100F4000BA0261E070E0C1010E94E90162E070E074
:100F500080E090E00E94B701809100019091010132
:100F6000032C000C4408550820E030E040E251E436
:100F7000C09729F56091420170914301809144012D
:100F8000909145010E94070B6B017C01C201B101E8
:100F90000E94A80A9B01AC01C701B6010E94FD0B8B
:100FA00020E030E040E452E40E94FC0B60934201F8
:100FB000709343018093440190934501CBCD6091A0
:100FC0003E0170913F0180914001909141010E944A
:100FD000070B6B017C01C201B1010E94A80A9B01B1
:100FE000AC01C701B6010E94FD0B20E030E040E4F7
:100FF00052E40E94FC0B60933E0170933F0180938A
:10100000400190934101A6CDE8E4F1E01182108205
:10101000138212821582148250E040E061E371E095
:10102000CF010C94040388E491E00C948A02EF92BF
:101030000F931F93CF93DF93E80134E047FD34E132
:10104000042E000C550B57FF03C0519541955109D3
:10105000E32E022F242FAE010E945A08CE01DF9109
:10106000CF911F910F91EF900895BB274A3031F433
:10107000992322F4BDE2909581959F4F0C944108ED
:10108000BB27FB015527AA27880F991FAA1FA41762
:1010900010F0A41B83955051B9F7A05DAA3308F056
:1010A000A95DA193009779F7B111B1931192CB018A
:1010B0000C94910AA9E0B0E0E0E6F8E00C94CB0BC8
:1010C0006A01F22EB02E102FFBE3AF2EA01608F40B
:1010D0001BE31F5F012F27E0AE014F5F5F4F0E94B0
:1010E000B909BC018981982F9970913009F43FC0EA
:1010F0009BE2E1FC04C09E2D9170E0FC3AC05E2DA5
:101100005071E82FE87083FF46C084E0911101C060
:1011100083E0EF2DE81B8F1508F0E0E0D6018E2F5D
:1011200020E2552351F1992329F0D6019C93C60161
:1011300001966C0196012D5F3F4FE2FE24C08EE4C4
:10114000D6018C9391E411969C93119712968C93EF
:10115000D9018E2F90E281111BC0E20FF32FF11DF8
:1011600010828EEF9FEF2996ECE00C94E70B9DE246
:10117000C6CF90E2C4CF2D9381508111FCCFCE0E0B
:10118000D11CE0E0D0CF8EE6D6018C9391E6DBCF88
:101190009D938150E0CF482F447082FF3DC084E092
:1011A000911101C083E08F1510F4EF2DE81BD601DB
:1011B0008E2F20E2552309F1992329F0D6019C9323
:1011C000C60101966C0196012D5F3F4FE2FE1BC0E8
:1011D00089E4D6018C938EE411968C93119786E462
:1011E00012968C93D9018E2F90E2882309F4B5CF03
:1011F0009D938150FACF2D9381508111FCCFCE0E5B
:10120000D11CE0E0D9CF89E6D6018C938EE6119609
:101210008C93119786E6E4CF9B0177FF02C030E004
:1012200020E0A1E0B0E0911102C0B0E0A0E0F9013F
:101230003196AE0FBF1F8B2C912CBB2009F461C0DF
:101240005401EFEFAE1ABE0AAA0DBB1DFA161B061B
:1012500019F014F04F2D4A1B511188C0E3FC59C0FE
:101260007601A42FB0E2A1114FC0C40ED11C992366
:1012700009F45BC040E0D6011196F60190836D0140
:10128000552309F448C0012F060F9A81582F507139
:1012900084FF03C0913309F4015010160CF047C0CD
:1012A000093008F008E0EEE2FE2E5B01A01AB1085A
:1012B00085019194819491082F3F320729F4D6013A
:1012C000FC92F60131966F016217730794F10217D1
:1012D00013077CF5DB01A21BB30BAA24A394B12C4A
:1012E000AC0EBD1EAA0DBB1D11968C91215031096B
:1012F000D601119628153905F4F0F60180836D01A9
:10130000DBCFB12CA12CA0CFF701B1937F01A1506D
:10131000AACF9111B0CFD601942F50E302C05D93B4
:1013200091509111FCCFC40ED11C40E0ACCF01E034
:10133000BACF80E3DBCF6217730731F4963388F4BA
:10134000953311F4552369F0F6018083FD01842F54
:1013500090E2811108C0A40FB11D1C9290E080E0C2
:1013600002CF81E3F1CF91938150F3CF911183CFDD
:101370008ACF283008F027E03327DA01990F311D92
:1013800087FD916000966105710539F432602E5F2A
:101390003D9330E32A95E1F708959F3F30F0803880
:1013A0007105610509F03C5F3C5F3D93913008F0A9
:1013B0008068911DDF93CF931F930F93FF92EF925D
:1013C000192F987F9695E92F96959695E90FFF2707
:1013D000EE53FF4F99273327EE24FF24A701E7019F
:1013E00005900894079428F4360FE71EF81E491F4D
:1013F000511D660F771F881F991F0694A1F705904E
:10140000079428F4E70EF81E491F561FC11D770FD9
:10141000881F991F661F0694A1F70590079428F46A
:10142000F80E491F561FC71FD11D880F991F661F31
:10143000771F0694A1F70590079420F4490F561FD3
:10144000C71FD81F990F661F771F881F0694A9F71B
:1014500084911095177041F0D695C795579547958B
:10146000F794E7941A95C1F7E8E6F0E068941590D0
:10147000159135916591959105907FE27395E118ED
:10148000F10A430B560BC90BD009C0F7E10CF11E52
:10149000431F561FC91FD01D7EF4703311F48A9567
:1014A000E6CFE894015030F0080F0AF40027021745
:1014B00008F4202F2395022F7A3328F079E37D93C7
:1014C0002A95E9F710C07D932A9589F60694979599
:1014D0006795379517951794E118F10A430B560B4A
:1014E000C90BD00998F023957E9173957A3308F053
:1014F00070E37C932013B8F77E9170617D9330F098
:10150000839571E37D9370E32A95E1F71124EF90C1
:10151000FF900F911F91CF91DF91992787FD9095B3
:101520000895DC01FC01672F71917723E1F7329771
:1015300004C07C916D9370836291AE17BF07C8F3AE
:1015400008950E94E30A08F481E00895E89409C030
:1015500097FB3EF490958095709561957F4F8F4FE6
:101560009F4F9923A9F0F92F96E9BB279395F695FC
:10157000879577956795B795F111F8CFFAF4BB0F7A
:1015800011F460FF1BC06F5F7F4F8F4F9F4F16C0DE
:10159000882311F096E911C0772321F09EE8872F68
:1015A000762F05C0662371F096E8862F70E060E024
:1015B0002AF09A95660F771F881FDAF7880F96959D
:1015C000879597F90895990F0008550FAA0BE0E841
:1015D000FEEF16161706E807F907C0F012161306F5
:1015E000E407F50798F0621B730B840B950B39F435
:1015F0000A2661F0232B242B252B21F408950A269B
:1016000009F4A140A6958FEF811D811D08950E94C8
:101610001A0B0C948B0B0E947D0B38F00E94840BEC
:1016200020F0952311F00C94740B0C947A0B112478
:101630000C94BF0B0E949C0B70F3959FC1F3950F08
:1016400050E0551F629FF001729FBB27F00DB11D46
:10165000639FAA27F00DB11DAA1F649F6627B00DD6
:10166000A11D661F829F2227B00DA11D621F739FBF
:10167000B00DA11D621F839FA00D611D221F749FCD
:101680003327A00D611D231F849F600D211D822F14
:10169000762F6A2F11249F5750409AF0F1F088233B
:1016A0004AF0EE0FFF1FBB1F661F771F881F915068
:1016B0005040A9F79E3F510580F00C94740B0C9498
:1016C000BF0B5F3FE4F3983ED4F38695779567951B
:1016D000B795F795E7959F5FC1F7FE2B880F911D92
:1016E0009695879597F9089597F99F6780E870E038
:1016F00060E008959FEF80EC089500240A94161688
:10170000170618060906089500240A9412161306EF
:10171000140605060895092E0394000C11F488237D
:1017200052F0BB0F40F4BF2B11F460FF04C06F5F99
:101730007F4F8F4F9F4F089557FD9058440F551F6F
:1017400059F05F3F71F04795880F97FB991F61F043
:101750009F3F79F087950895121613061406551FBA
:10176000F2CF4695F1DF08C0161617061806991F26
:10177000F1CF86957105610508940895E894BB271B
:1017800066277727CB0197F908952F923F924F92C2
:101790005F926F927F928F929F92AF92BF92CF9201
:1017A000DF92EF92FF920F931F93CF93DF93CDB70A
:1017B000DEB7CA1BDB0B0FB6F894DEBF0FBECDBF82
:1017C00009942A88398848885F846E847D848C8453
:1017D0009B84AA84B984C884DF80EE80FD800C815C
:1017E0001B81AA81B981CE0FD11D0FB6F894DEBF3F
:1017F0000FBECDBFED0108955058BB27AA270E9408
:10180000140C0C948B0B0E947D0B38F00E94840BFF
:1018100020F039F49F3F19F426F40C947A0B0EF45F
:10182000E095E7FB0C94740BE92F0E949C0B58F396
:10183000BA17620773078407950720F079F4A6F5B5
:101840000C94BE0B0EF4E0950B2EBA2FA02D0B01BD
:10185000B90190010C01CA01A0011124FF27591BF5
:1018600099F0593F50F4503E68F11A16F040A22FFB
:10187000232F342F4427585FF3CF4695379527956C
:10188000A795F0405395C9F77EF41F16BA0B620B6B
:10189000730B840BBAF09150A1F0FF0FBB1F661FB2
:1018A000771F881FC2F70EC0BA0F621F731F841FF5
:1018B00048F4879577956795B795F7959E3F08F01B
:1018C000B0CF9395880F08F09927EE0F97958795DD
:1018D00008950E947D0C0C948B0B0E94840B58F091
:1018E0000E947D0B40F029F45F3F29F00C94740BAB
:1018F00051110C94BF0B0C947A0B0E949C0B68F353
:101900009923B1F3552391F3951B550BBB27AA27B8
:1019100062177307840738F09F5F5F4F220F331FF2
:10192000441FAA1FA9F335D00E2E3AF0E0E832D0BA
:1019300091505040E695001CCAF72BD0FE2F29D0BD
:10194000660F771F881FBB1F261737074807AB078F
:10195000B0E809F0BB0B802DBF01FF2793585F4F04
:101960003AF09E3F510578F00C94740B0C94BF0B29
:101970005F3FE4F3983ED4F3869577956795B795E6
:10198000F7959F5FC9F7880F911D9695879597F9F1
:101990000895E1E0660F771F881FBB1F621773076A
:1019A0008407BA0720F0621B730B840BBA0BEE1F7F
:1019B00088F7E0950895EE0FFF1F0590F491E02D54
:1019C00009940F931F93CF93DF938230910510F406
:1019D00082E090E0E0915001F091510130E020E090
:1019E000B0E0A0E0309799F42115310509F44AC020
:1019F000281B390B24303105D8F58A819B8161156C
:101A0000710589F1FB0193838283FE0111C040813E
:101A100051810281138148175907E0F0481759078F
:101A200099F4109761F012960C93129713961C93E9
:101A30003296CF01DF91CF911F910F9108950093BE
:101A4000500110935101F4CF2115310551F0421787
:101A5000530738F0A901DB019A01BD01DF01F8014C
:101A6000C1CFEF01F9CF9093510180935001CDCFB9
:101A7000FE01E20FF31F81939193225031093983C4
:101A80002883D7CF20914E0130914F01232B41F471
:101A9000209104013091050130934F0120934E01B4
:101AA00020910201309103012115310541F42DB738
:101AB0003EB74091060150910701241B350BE09180
:101AC0004E01F0914F01E217F307A0F42E1B3F0BDC
:101AD0002817390778F0AC014E5F5F4F24173507A0
:101AE00048F04E0F5F1F50934F0140934E0181937A
:101AF00091939FCFF0E0E0E09CCFCF93DF930097EE
:101B0000E9F0FC01329713821282A0915001B0914A
:101B10005101ED0130E020E01097A1F420813181E6
:101B2000820F931F20914E0130914F0128173907E2
:101B300009F061C0F0934F01E0934E01DF91CF9126
:101B40000895EA01CE17DF07E8F54A815B819E011F
:101B500041155105B1F7E901FB83EA834991599198
:101B6000C40FD51FEC17FD0761F4808191810296A7
:101B7000840F951FE90199838883828193819B83D8
:101B80008A83F0E0E0E012968D919C911397009784
:101B9000B9F52D913C911197CD010296820F931FBB
:101BA00020914E0130914F012817390739F63097AF
:101BB00051F51092510110925001B0934F01A09332
:101BC0004E01BCCFD383C28340815181840F951FC6
:101BD000C817D90761F44E5F5F4F88819981480F1C
:101BE000591F518340838A819B819383828321156E
:101BF000310509F0B0CFF0935101E09350019ECF31
:101C0000FD01DC01C0CF13821282D7CFB0E0A0E08B
:101C1000ECE0FEE00C94C70B8C01009751F4CB0173
:101C20000E94E10C8C01C801CDB7DEB7E0E10C9455
:101C3000E30BFC01E60FF71F9C0122503109E2176C
:101C4000F30708F49DC0D901CD91DC911197C61717
:101C5000D70798F0C530D10530F3CE010497861729
:101C6000970708F3C61BD70B2297C193D1936D93A7
:101C70007C93CF010E947D0DD6CF5B01AC1ABD0ACB
:101C80004C018C0E9D1EA0915001B0915101512C20
:101C9000412CF12CE12C109731F580914E0190915F
:101CA0004F018815990509F05CC04616570608F0E3
:101CB00058C08091020190910301009741F48DB7C3
:101CC0009EB74091060150910701841B950BE817C0
:101CD000F90708F055C0F0934F01E0934E01F90168
:101CE00071836083A0CF8D919C91119712966C9017
:101CF000129713967C901397A815B90559F56C01A6
:101D000042E0C40ED11CCA14DB0420F1AC014A1914
:101D10005B09DA011296159780F062827382518313
:101D20004083D9016D937C93E114F10471F0D701E4
:101D30001396FC93EE93129776CF22968C0F9D1FED
:101D4000F90191838083F301EFCFF0935101E09388
:101D5000500169CF4816590608F42C017D01D301C2
:101D60009ACFCB010E94E10C7C01009749F0AE01B3
:101D7000B8010E94C30EC8010E947D0D870153CF98
:101D800010E000E050CFFB01DC0102C001900D9299
:101D900041505040D8F70895FB01DC0101900D92AD
:101DA0000020E1F7089510E0CFEDD0E004C0FE017F
:101DB0000E94DB0C2196C03ED107C9F7F894FFCFF3
:101DC00030000000520180003700380039002F0039
:101DD0003400350036002A003100320033002D0077
:101DE0002E0030003D002B00000102034572726F8F
:021DF00072007F
:00000001FF
